:100000000C94F8000C943A1E0C94131E0C942001CE
:100010000C9420010C9420010C94611E0C9420017E
:100020000C9420010C9420010C9420010C946B1270
:100030000C9420010C9420010C9420010C942001BC
:100040000C94C91D0C9420010C94BC1C0C94961C9F
:100050000C9420010C9420010C9420010C9420019C
:100060000C9420010C94200122002C226974656DEF
:10007000223A22007B22726573756C74223A0070FA
:10008000696400727373690072616944650062613A
:1000900074007A62697473007472656D00707265C1
:1000A0006D006D6E70006E74006E70007469640097
:1000B0007069640075746374006677760074006E0E
:1000C000616D65007074006E740073747300636F0B
:1000D0006E666967007600647572007A6964006410
:1000E00075727300647572007A6269747300223AE3
:1000F00000636F6E66696700000000002300260041
:10010000290072740492740448940478C40C525305
:1001100053492066726F6D005363616E6E696E673E
:10012000206E6F646520004E6F726D616C206D6F84
:100130006465206E6F7700496E20636164206D6F87
:100140006465206E6F7700726573656E642000735E
:1001500063616E20726571756573742066726F6D70
:100160000072656365697665640072657472616EBC
:10017000736D697474656420746F00525353493A07
:10018000200072656365697665643A20002200226A
:100190003A002200223A002200223A002200000007
:1001A0000000240027002A0000000000250028008D
:1001B0002B000404040404040404020202020202E8
:1001C000030303030303010204081020408001021B
:1001D000040810200102040810200000000800029A
:1001E0000100000304070000000000000000DE26FC
:1001F00011241FBECFEFD8E0DEBFCDBF13E0A0E0DB
:10020000B1E0EEE3FDE502C005900D92AA33B1071F
:10021000D9F727E0AAE3B3E001C01D92A337B207E4
:10022000E1F710E0C8EFD0E004C02197FE010E9482
:10023000BC29C73FD107C9F70E94A61F0C949D2E69
:100240000C940000E6E6F3E0108211821282138221
:1002500014821582168217828FEF80936503809334
:100260006403109263031092620310929103109240
:100270009203109293031092940310925E031092D3
:100280005F0310926003109261030895CF92DF9292
:10029000EF92FF921F93CF93DF93EC012091170110
:1002A0003091180118818091F1039091F203A0918F
:1002B000F303B091F4036C017D0140ECC41A48EAE9
:1002C000D40AE108F108A4E8B3E00E946E296C0D9D
:1002D0007D1D8E1D9F1D28E130E040E050E00E9412
:1002E0004C29A0E1BEE00E940229610F711D811D11
:1002F000911D298130E040E050E00E944C29688344
:10030000DF91CF911F91FF90EF90DF90CF900895F4
:10031000089561E083E10E94171D64EF71E080E0C1
:1003200090E00E94831D60E083E10C94171D4F92C2
:100330005F926F927F928F929F92AF92BF92CF9275
:10034000DF92EF92FF920F931F93CF93DF93CDB77E
:10035000DEB7A4970FB6F894DEBF0FBECDBF65E23F
:1003600072E086E594E00E94C72B609117017091BE
:10037000180187E292E00E940D176BE272E086E5B9
:1003800094E00E94C72B10E080E00DE590915504A9
:10039000191708F0E1C065E272E086E594E00E947A
:1003A000C72BBE016F5F7F4F812F0E940418898188
:1003B000282F30E040E050E029A33AA34BA35CA3F0
:1003C00081FF42C0CB8020911701309118018C2C05
:1003D000912CA12CB12C8A81D12CC80ED11C0D2CB2
:1003E000000CEE08FF084090F1035090F20360907B
:1003F000F3037090F40340EC441A48EA540A61088D
:100400007108A4E8B3E00E946E29640D751D861D75
:10041000971D28E130E040E050E00E944C29A0E127
:10042000BEE00E940229A50194010E944C29A70167
:100430009601261B370B480B590BCA01B901A501C0
:1004400094010E944C296A838A814B8150E060E0CC
:1004500070E0BA0155274427582B89A19AA1ABA176
:10046000BCA1482B592B6A2B7B2B81EF90E00E947B
:10047000AE1665E372E086E594E00E94C72B6C81BE
:100480007D81072E000C880B990B42E353E00E94FC
:1004900024186E817F81072E000C880B990B42E394
:1004A00053E00E94241868857985072E000C880B7C
:1004B000990B4DEB52E00E9424186A8570E08DE3A1
:1004C00092E00E940D1760E472E086E594E00E94DD
:1004D000C72BF12C8A85F81600F5EF2DF0E0CF013F
:1004E000880F991FE80FF91FA1E0B0E0AC0FBD1F06
:1004F000EA0FFB1F228563857485CB01A0E0B0E085
:10050000BA2FA92F982F8827BC01CD01622B42E377
:1005100053E00E942418F394DDCF86E5E82E84E0B2
:10052000F82EF70101900020E9F732970083BE0111
:100530006F5E7F4F87E492E00E94BB17F701019046
:100540000020E9F7329710826CE472E0C7010E9444
:10055000C72B1F5F81E01ACF882339F0E6E5F4E06E
:1005600001900020E9F7329710826FE472E086E58F
:1005700094E00E94C72B0E94F117A4960FB6F8943E
:10058000DEBF0FBECDBFDF91CF911F910F91FF90C6
:10059000EF90DF90CF90BF90AF909F908F907F9023
:1005A0006F905F904F900895AF92BF92CF92DF927D
:1005B000FF920F931F93CF93DF93CDB7DEB72A97A8
:1005C0000FB6F894DEBF0FBECDBF65E272E086E5E0
:1005D00094E00E94C72BF12C07E011E086E5C82EBD
:1005E00084E0D82EF80180859185892B79F4F5E097
:1005F000FF1203C062E572E005C084E0F81238C063
:100600006CE073E0C8010E94BB1732C0F801A680FD
:10061000B780F60101900020E9F73197E655F440E4
:10062000EB3AF10528F56FE273E086E594E00E946D
:10063000C72BB80186E594E00E94C72B6EEE70E0F0
:1006400086E594E00E94F827B50180E090E02AE07A
:10065000AE014F5F5F4F0E946728BC0186E594E0C2
:100660000E94C72B62E373E086E594E00E94C72BEB
:10067000F394065F1F4FF7E0FF12B4CFE6E5F4E016
:1006800001900020E9F73297108260E572E086E57C
:1006900094E00E94C72B0E94F1172A960FB6F89497
:1006A000DEBF0FBECDBFDF91CF911F910F91FF90A5
:1006B000DF90CF90BF90AF900895EF92FF920F938D
:1006C0001F93CF93DF93CDB7DEB7E2970FB6F894C1
:1006D000DEBF0FBECDBFBC011982DE011196FC0149
:1006E000E080F18020E030E08D01A7012A30310563
:1006F00059F0F70191917F019D32F9F09B32E9F0B9
:1007000080ED890F8A30C8F0F801E20FF31F1082E4
:100710004F5F5F4FFB0151834083C8010E94C82790
:10072000E2960FB6F894DEBF0FBECDBFDF91CF913A
:100730001F910F91FF90EF9008952F5F3F4F9D9372
:10074000D4CF65E272E086E594E00E94C72B609109
:100750000D0170910E0189EB90E00E946417609189
:1007600021017091220183E692E00E940D174091D1
:10077000F1035091F2036091F3037091F40384EB61
:1007800090E00E94AE1660916403062E000C770B79
:1007900080EB90E00E94641760916503062E000CC8
:1007A000770B8CEA90E00E9464176091550470E02A
:1007B00089EA90E00E9464176091620370E086EA23
:1007C00090E00E94641763E070E082EA90E00E948B
:1007D000641740919103509192036091930370913B
:1007E00094038DE990E00E94AE1640915E03509113
:1007F0005F03609160037091610388E990E00E945B
:10080000AE166091520370E082E990E00E94641796
:1008100087E480937C0080917A00806480937A00E2
:1008200080917A0086FDFCCF20917800809179003C
:1008300030E0382B4FE1429FC001439F900D1124BF
:1008400097FF02C081509E4F792F770F770B692F4A
:1008500065958EE890E00E9464174091490150919F
:100860004A0160E070E088E890E00E94AE1660E027
:1008700070E083E890E00E94641760E572E086E52E
:1008800094E00E94C72B0C94F117EF92FF920F9304
:100890001F93CF938C017B010E945316C82F88238E
:1008A00039F0C8010E942016BC01C7010E94E62B46
:1008B0008C2FCF911F910F91FF90EF900895EF92A1
:1008C000FF920F931F93CF938C017B010E945316CD
:1008D000C82F882351F0C8010E9420160E94C82703
:1008E000F70160837183828393838C2FCF911F9153
:1008F0000F91FF90EF9008958F929F92AF92BF92C9
:10090000CF92DF92EF92FF920F931F93CF93DF93DB
:100910004C016B010E947516B82E882331F1A0900E
:100920000A0599E1E92E95E0F92E00E010E00A159C
:1009300098F4E801B401C7010E9403280F5F1F4F1C
:1009400028E0E20EF11C892B91F7CC0FDD1FC55F6B
:10095000DA4F8881998102C08CE093E00E94C82719
:10096000F60160837183828393838B2DDF91CF9116
:100970001F910F91FF90EF90DF90CF90BF90AF90BD
:100980009F908F9008958F929F92AF92BF92CF9237
:10099000DF92EF92FF920F931F93CF93DF934C015F
:1009A0006B010E947516B82E882311F1A0900A05DC
:1009B00099E1E92E95E0F92E00E010E00A1598F48F
:1009C000E801B401C7010E9403280F5F1F4F28E010
:1009D000E20EF11C892B91F7CC0FDD1FC55FDA4FBA
:1009E0006881798102C06CE073E0C6010E94E62B49
:1009F0008B2DDF91CF911F910F91FF90EF90DF90A2
:100A0000CF90BF90AF909F908F900895EF92FF92FC
:100A10001F93CF93DF937C01EB010E945316182F95
:100A20008823F1F0C7010E942016BC01009761F0F5
:100A3000FC0101900020E9F73197AF01481B590BE9
:100A4000CE010E94AB1A0CC088819981009711F0E9
:100A50000E94572A198218821D821C821B821A82C8
:100A6000812FDF91CF911F91FF90EF900895FF921A
:100A70000F931F93CF93DF9300D000D0CDB7DEB795
:100A8000F82E8B0164E770E086E594E00E94F82779
:100A90004AE0BE016F5F7F4F8F2D90E00E943F289C
:100AA000BC0186E594E00E94C72B6AE670E086E50B
:100AB00094E00E94F8270115110529F0B80186E598
:100AC00094E00E94C72B68E670E086E594E00E94FF
:100AD000F82760E572E086E594E00E94C72B0E944B
:100AE000F1170F900F900F900F90DF91CF911F9102
:100AF0000F91FF900895CF93DF9300D000D0CDB732
:100B0000DEB7BE016F5F7F4F8FE790E00E947C04ED
:100B1000882319F089819A8107C067E672E080E135
:100B20000E9437058EEF9FEF0F900F900F900F9060
:100B3000DF91CF910895CF938BE692E00E945316F8
:100B4000C82F882379F08BE692E00E942016FC01E2
:100B50008081882341F060E070E082E00E943705E8
:100B6000C0E001C0C1E08C2FCF9108950E949B0589
:100B7000882329F060E070E081E00C943705089547
:100B800060937E0370937F0380938003909381032F
:100B9000DC01CB01845D9E4FAF4FBF4F80937A0342
:100BA00090937B03A0937C03B0937D0382E090E05D
:100BB00090937903809378030E94BD1D6093740322
:100BC0007093750380937603909377030895CF9283
:100BD000DF92EF92FF920F931F930E94BD1DC09072
:100BE0007403D0907503E0907603F09077038B0147
:100BF0009C010C191D092E093F0980917E039091DB
:100C00007F03A0918003B0918103083E134021052A
:100C10003105D0F00196A11DB11D80937E03909304
:100C20007F03A0938003B0938103B701A6014851CD
:100C30005C4F6F4F7F4F40937403509375036093E5
:100C4000760370937703C9CF40917A0350917B0369
:100C500060917C0370917D0384179507A607B70701
:100C600088F1E0917203F0917303309759F109957F
:100C7000611571058105910519F00E94C00522C01A
:100C800080917E0390917F03A0918003B0918103B6
:100C9000845D9E4FAF4FBF4F80937A0390937B0349
:100CA000A0937C03B0937D0381E090E020917803D2
:100CB00030917903232B11F480E090E09093790335
:100CC0008093780360917E0370917F03809180030D
:100CD000909181031F910F91FF90EF90DF90CF9043
:100CE00008954F925F926F927F928F929F92AF92F0
:100CF000BF92CF92DF92EF92FF920F931F93CF9309
:100D0000DF934B015C0180916E0390916F03A09182
:100D10007003B091710388169906AA06BB0609F400
:100D2000C2C08CE3C82ED12CE12CF12CC501B4013A
:100D3000A70196010E944C2960938903CA01B90159
:100D4000A70196010E944C2960938A03CA01B90148
:100D500028E130E040E050E00E944C2969017A012E
:100D600060938B03CA01B9016C5F7F4F8F4F9F4F18
:100D700027E030E040E050E00E944C296F5F609334
:100D80008C03412C512C320140E004E610E0C0E914
:100D9000D1E0242F30E02E54384FF901E370FF27C3
:100DA000309789F4C901B8010E948D29892B31F44B
:100DB000C901BE010E948D29892B29F48EE691E09C
:100DC000A0E0B0E004C08DE691E0A0E0B0E0480E05
:100DD000591E6A1E7B1ED301C201AA27BB27C81653
:100DE000D906EA06FB0610F04F5FD3CF40938F037E
:100DF000309799F4C90164E670E00E948D29892B2F
:100E000039F4C90160E971E00E948D29892B29F428
:100E10008EE691E0A0E0B0E004C08DE691E0A0E0B5
:100E2000B0E0481A590A6A0A7B0AC418D508E608CD
:100E3000F708C90164E670E00E948D29EC01C90140
:100E400060E971E00E948D29ADE5B1E020E021303C
:100E500039F4309749F4209729F4009729F402C017
:100E60004C9103C04DE101C04CE150E060E070E006
:100E7000C416D506E606F70640F0C41AD50AE60AF7
:100E8000F70A2F5F11962C3011F72F5F20938E03F6
:100E9000C394C0928D0380926E0390926F03A092D0
:100EA0007003B0927103DF91CF911F910F91FF906A
:100EB000EF90DF90CF90BF90AF909F908F907F90FA
:100EC0006F905F904F900895CF93DF9320912B0107
:100ED00030912C01C82FD0E0232B91F40E9489017E
:100EE000C754DE4FC88161E08C2F0E94171D68EE49
:100EF00073E080E090E00E94831D60E08C2F04C0CE
:100F0000C454DE4F60E088810E94171D60E087E0D6
:100F1000DF91CF910C94171DCF93DF9320912B017C
:100F200030912C01C82FD0E0232B91F40E9489012D
:100F3000C454DE4FC88161E08C2F0E94171D68EEFB
:100F400073E080E090E00E94831D60E08C2F04C07D
:100F5000C454DE4F61E088810E94171D61E087E084
:100F6000DF91CF910C94171DBF92CF92DF92EF9239
:100F7000FF920F931F93CF93DF9300D000D0CDB794
:100F8000DEB70E949B05882309F4DAC080E792E06F
:100F90000E945316882359F060E070E081E00E94BF
:100FA000370560E080E090E00E94D528B9C085E771
:100FB00092E00E945316882309F461C060E070E05B
:100FC00081E00E9437051092530386E4E82E83E007
:100FD000F82E00E010E0CC24C394D12C23E6B22EEE
:100FE00020915203C601002E01C0880F0A94EAF72F
:100FF0008223B9F1802F0E9464078091F1039091C0
:10100000F203A091F303B091F40380933A03909319
:101010003B03A0933C03B0933D030196A11DB11D7A
:10102000F7014081518162817381841B950BA60B6E
:10103000B70B80933E0390933F03A0934003B0937C
:101040004103B09242030093430380916403809371
:1010500044038091650380934503108211821282BC
:101060001382F4E0EF0EF11C0130110519F001E0DC
:1010700010E0B6CF109252030E94220161C089E7AE
:1010800092E00E945316882309F43FC0BE016F5FAF
:101090007F4F8DEB90E00E947C0481E090E0909384
:1010A000FA038093F903C980DA80EB80FC80C701E2
:1010B000B6010E94C005209117013091180180EC03
:1010C000C80E88EAD81EE11CF11CA4E8B3E00E9417
:1010D0006E29C61AD70AE80AF90AC092F103D0921B
:1010E000F203E092F303F092F4031092F5031092EE
:1010F000F6031092F7031092F80381E080938803BF
:1011000060E070E00E9437051BC08BE792E00E9410
:1011100053168823A9F060E070E081E00E94370553
:101120000E94BD1DDC01CB0188519C4FAF4FBF4FCA
:101130008093540390935503A0935603B0935703A1
:101140000F900F900F900F90DF91CF911F910F9103
:10115000FF90EF90DF90CF90BF900895CF92DF92F5
:10116000EF92FF921F93CF93DF93CDB7DEB76E97C9
:101170000FB6F894DEBF0FBECDBF87E0E82E81E04A
:10118000F82E9AE0C92ED12C10E0B701CE010196BD
:101190000E94E62B153019F462E572E004C01430A9
:1011A00031F46CE073E0CE010B960E94E62BF70160
:1011B0008681978198878F83808591859A87898793
:1011C0004EE150E0B601CE0101960E94CB281F5F90
:1011D000FAE0EF0EF11C8EE1C80ED11C1730A9F613
:1011E0006E960FB6F894DEBF0FBECDBFDF91CF91E4
:1011F0001F91FF90EF90DF90CF900895FF920F9393
:101200001F93CF93DF93CDB7DEB7A6970FB6F894B1
:10121000DEBF0FBECDBF0E949B05882309F4D9C055
:101220001BA21CA21DA21EA26CE073E0CE014D9673
:101230000E940B1607E011E0F12C8F2D8B7F61F1DE
:10124000F80180859185892B39F1BE016D5D7F4F55
:10125000C8010E945F048823F9F063E672E0C801C8
:101260000E94DD2B892B29F48BA18093F2058093BA
:10127000F905F80180859185A0E0B0E04BA15CA163
:101280006DA17EA184179507A607B7072CF4B801B6
:1012900081E10E94370599C0F394065F1F4FF7E084
:1012A000FF12CBCF6CE073E0CE0147960E940B1685
:1012B0006CE073E0CE0141960E940B16BE01695EA0
:1012C0007F4F82E892E00E940605811104C007E08A
:1012D00011E0F12C51C0BE016F5E7F4F87E892E0B4
:1012E0000E940605882361F12B8D3C8D8D899E8996
:1012F0002817390709F58F89988D69897A890097A8
:1013000019F061157105A1F46115710549F0232BE0
:10131000F1F2FB01808190E09195819591090AC0DD
:101320000097A9F2232B99F2FC01808190E002C082
:101330000E94DD2B892B59F267E872E083E03BC005
:1013400067E872E080E137C0F80180859185892BDC
:10135000B9F0BE016D5D7F4FC8010E945F04882314
:1013600029F08BA19CA1F80197838683F394065FF3
:101370001F4FF7E0FF1651F08F2D8B7F29F7F6CF27
:1013800062E572E0C8010E944504F0CFBE016F5FC4
:101390007F4F82E892E00E944504882339F0BE0125
:1013A0006F5F7F4F8CE093E00E94E62B0E94AE08B7
:1013B00060E070E081E00E94370589899A890E9487
:1013C000572A8F89988D0E94572A8D8D9E8D0E9455
:1013D000572AA6960FB6F894DEBF0FBECDBFDF9199
:1013E000CF911F910F91FF900895EEEEF5E02091BF
:1013F0005304238720914E012287FC010190002095
:10140000E9F73197AF01481B590BBC018EEE95E00F
:101410000E940D1F8EEE95E00C94A0102F923F922B
:101420004F925F926F927F928F929F92AF92BF92F4
:10143000CF92DF92EF92FF920F931F93CF93DF93A0
:10144000CDB7DEB7AF970FB6F894DEBF0FBECDBFF6
:101450000E94E7054B015C0110916203E5E9F3E0AE
:10146000A6E6B3E080E08117C1F080829182A2827B
:10147000B3824D915D916D917D916A017B01C81898
:10148000D908EA08FB08C482D582E682F7828F5F1A
:10149000808739964A015B01E6CFC12CD12C7601B9
:1014A0009E01265F3F4F3AA329A329E0222E0E94E6
:1014B000E70520E831E541E050E00E944C292C0D81
:1014C0003D1D4E1D5F1D60E871E581E090E00E94CA
:1014D0007D299B01AC012F5F3F4F4F4F5F4F2BA3E7
:1014E0003CA34DA35EA300E080915504081708F0CB
:1014F000F2C0823028F4C114D104E104F10431F4C3
:10150000BE016F5F7F4F802F0E940418412C512C29
:10151000320143948091490190914A01892B19F03D
:10152000412C512C3201C301B2010E94710630904E
:101530008C03C301B2010E94710630918D03C30177
:10154000B2013FA70E94710640918E032981EA8172
:101550003FA521FD10C0F0E0832D90E0059667E0E7
:1015600070E00E948D2902C0F595E7958A95E2F713
:10157000E0FD03C0AEC0E111ACC02C7039F02830E2
:1015800019F430FF03C0A5C02430C9F08C859D85B7
:101590002C01612C712C4FA258A669A67AA63B8417
:1015A0005A85BE016C5F7F4F8F8598892C01612C15
:1015B000712C4BA65CA66DA67EA64E8514C03F314D
:1015C00009F487C03D3119F4423009F482C030FD7E
:1015D000DDCF7FC012161306ECF069A07AA0661565
:1015E000770509F476C0DB012D913D91BD01C9015C
:1015F000032E000CAA0BBB0B4BA05CA06DA07EA021
:10160000840D951DA61DB71D88169906AA06BB0652
:1016100020F7E0CF219EF0011124EB56FC4F8CE324
:10162000582E529EC001539E900D1124092E000C7D
:10163000AA0BBB0B4BA05CA06DA07EA0840D951DDA
:10164000A61DB71D80839183A283B3838FA198A524
:10165000A9A5BAA584839583A683B78381E0810F6A
:101660003086523088F190E09C0121503109289E4B
:10167000F001299EF00D1124EB56FC4F229EC00173
:10168000239E900D1124DC01AB56BC4F14964D9057
:101690005D906D907C9017978D919D910D90BC9170
:1016A000A02D480E591E6A1E7B1E40825182628206
:1016B00073824BA45CA46DA47EA44482558266828E
:1016C00077821E5F408701C0182F1A3009F085CF3E
:1016D0000EC00F5F09CF2FEFC21AD20AE20AF20A38
:1016E0003EE1C316D104E104F10409F0E0CE10920A
:1016F000EF031092F003812FAF960FB6F894DEBF80
:101700000FBECDBFDF91CF911F910F91FF90EF9052
:10171000DF90CF90BF90AF909F908F907F906F9011
:101720005F904F903F902F9008957F928F929F925D
:10173000AF92BF92CF92DF92EF92FF920F931F93DF
:10174000CF93DF93CDB7DEB7A6970FB6F894DEBF81
:101750000FBECDBF0E949B05882309F4A1C10E9442
:101760007B058C0119A21AA21BA21CA28D34910523
:1017700029F1E4F4019609F014C10E94E705E09113
:10178000EF0329E0E29FF0011124EB56FC4F0081AA
:10179000118122813381DC01CB01801B910BA20BD3
:1017A000B30B84839583A683B78371C1813591057B
:1017B00009F456C084359105C9F1F3C0BE016F5DCF
:1017C0007F4F88EE90E00E947C04882309F445C096
:1017D00019A1BE016F5D7F4F84EE90E00E947C04F2
:1017E0008823C1F1C9A0DAA0EBA0FCA00E942201CD
:1017F00010935803D0925A03C0925903EE24FF2449
:101800008091F1039091F203A091F303B091F4035E
:10181000C80ED91EEA1EFB1EC0926603D092670353
:10182000E0926803F09269038DE4B1C0BE016F5D80
:101830007F4F8BED90E00E947C04882309F4ADC0BB
:1018400019A1BE016F5D7F4F87ED90E00E947C047F
:10185000811172C06CE872E0A2C060E972E09FC0C2
:10186000BE016F5F7F4F7EA36DA38FED90E00E945E
:10187000C304882309F45DC0CE0185960E945D03F0
:101880004B015C0177247394672B09F4712CCE0112
:1018900085960E945D036B017C018B01672B29F407
:1018A000711003C066E972E087C00E942201409176
:1018B000F1035091F2036091F3037091F4037720E8
:1018C000C1F081E08093580390925A0380925903AB
:1018D000AA24BB24480D591D6A1D7B1D4093660335
:1018E000509367036093680370936903012BE1F0E1
:1018F00004C0012B09F4D1C080E092E090935B0317
:10190000D0925D03C0925C03EE24FF24C40ED51E6A
:10191000E61EF71EC0926A03D0926B03E0926C033E
:10192000F0926D038F5F01C081E091E590936403B5
:1019300031C066E972E033C0C9A0DAA0EBA0FCA018
:10194000123008F09EC00E94220181E001C0880F81
:101950001A95EAF780935803D0925A03C09259031C
:10196000EE24FF248091F1039091F203A091F30300
:10197000B091F403C80ED91EEA1EFB1EC092660386
:10198000D0926703E0926803F092690384E5809344
:10199000640381E08093620374C06BE972E080E1CC
:1019A00079C017FD07C080915504282F30E0021739
:1019B000130724F067E672E081E16CC0081708F0B5
:1019C00060C00E942201BE016F5F7F4F802F0E9486
:1019D00004182A85222309F454C08C859D85A0E033
:1019E000B0E08093660390936703A0936803B0937D
:1019F0006903223060F08F859889A0E0B0E0809381
:101A00006A0390936B03A0936C03B0936D030093F0
:101A100064034091F1035091F2036091F3037091DC
:101A2000F40320916303222351F180916603909186
:101A30006703A0916803B0916903840F951FA61FE7
:101A4000B71F8093660390936703A0936803B093D6
:101A500069032230A0F040916A0350916B036091BA
:101A60006C0370916D03840F951FA61FB71F8093A1
:101A70006A0390936B03A0936C03B0936D03209360
:101A800062030E94E7050E940E0A8093900360E0C3
:101A900070E081E00E94370503C00E942201F1CF6F
:101AA000A6960FB6F894DEBF0FBECDBFDF91CF91E3
:101AB0001F910F91FF90EF90DF90CF90BF90AF906C
:101AC0009F908F907F900895CF92DF92FF920F9317
:101AD0001F93CF93DF93CDB7DEB7A0970FB6F894DF
:101AE000DEBF0FBECDBF0E949B05882309F456C000
:101AF0000E947B058C010F3F8FEF180734F0809117
:101B0000550490E00817190724F067E672E081E1B8
:101B100043C00F3F8FEF180721F41092550460E087
:101B20002EC080E991E00E94C328F82E081758F5CE
:101B300085E0000F111F8A95E1F70F541E4F80E2D8
:101B4000F89E600111248FE6C81A8EEFD80A0C1592
:101B50001D0598F440E250E0B801CE0101960E94C4
:101B6000B328B8016052710940E250E0CE010196FD
:101B70000E94CB28005E1F4FEACF6FEF6F0D80E908
:101B800091E00E94D5280E94E7050E940E0A8093EA
:101B9000900360E070E081E00E943705A0960FB6E8
:101BA000F894DEBF0FBECDBFDF91CF911F910F9193
:101BB000FF90DF90CF9008958F929F92AF92BF9247
:101BC000CF92DF92EF92FF920F931F93CF93DF9309
:101BD000CDB7DEB7CB55D1090FB6F894DEBF0FBE37
:101BE000CDBF0E949B05882309F405C20E947B0596
:101BF0008C010F3F8FEF180734F08091550490E06F
:101C0000081719071CF067E672E0F2C18FE992E04D
:101C10006B969FAF8EAF6B97FE0131967F01BF0130
:101C200085ED90E00E94C3048823D9F06596FFAE4D
:101C3000EEAE65979E012B593F4F6596EEADFFAD19
:101C400065978081882309F444C1E217F30708F0FF
:101C500040C131966596FFAFEEAF65978B3569F75A
:101C6000B9C0BE016D5A7F4F8EEC90E00E947C049B
:101C70008823F1F167968CAD9DADAEADBFAD679792
:101C80002BA980FB20F9AC01BD017595679557958F
:101C9000479540FB21F9AC01BD01E2E075956795E0
:101CA00057954795EA95D1F74370342F330F330F8B
:101CB000237CAC01BD01F4E0759567955795479578
:101CC000FA95D1F743704295407F232B422B4BABC3
:101CD0009CABCD01BB2797FDB095AB2F8DAB41FFE2
:101CE0000AC0823040F0CE01C4960E94460103C073
:101CF00061EB72E06DC06B966EAD7FAD6B978AEC59
:101D000090E00E94C3048823D9F06E0186E3C80ED8
:101D1000D11C5E019CE3A90EB11CCE01875A9F4FD6
:101D20000E945D03F601619371936F01EA15FB0553
:101D3000A1F78EA99FA997FF06C068EB72E058C172
:101D40006FEB72E045C0BE016D5A7F4F87EC90E0AB
:101D50000E947C048823D9F067968CAD9DADAEAD12
:101D6000BFAD67970197A105B10519F06DE372E06A
:101D70003FC181E08CAF6B966EAD7FAD6B9784EC0D
:101D800090E00E94C304882309F1D12C03C06DE3C5
:101D900072E01EC08CADD81608F09BC0CE01875AE9
:101DA0009F4F0E945D03ED2DF0E09F01220F331F36
:101DB000E20FF31FEE0DFF1D64AFFD96BB27A92FA9
:101DC000982F872F91838083D394E4CF63EC72E0C4
:101DD00080E10FC1CE018D5A9F4F0E945D039B0190
:101DE0008BA960FB80F9A9015595479541704295F3
:101DF000407F582F537CC901959587959595879578
:101E00008370982F990F990F852F842B74E0359547
:101E100027957A95E1F7892B20FB81F98BABCE01D1
:101E20008D5A9F4F0E945D036CABCE018D5A9F4F20
:101E30000E945D036DAB8BA981FF06C0623020F06C
:101E4000CE01C4960E94460165968EAD9FAD659702
:101E5000019665969FAF8EAF65977E01F6E3EF0E14
:101E6000F11C6E018CE3C80ED11C3CE3832E912C37
:101E7000A12CB12CCE018D5A9F4F0E945D03A5016C
:101E800094010E944C29F701219331937F01EC15B5
:101E9000FD0581F765968EAD9FAD659702966596B7
:101EA0009FAF8EAF65977E01FDE3EF0EF11CDD2441
:101EB000D39420E06596AEADBFAD6597FD0101906E
:101EC0000020E9F73197EA1BFB0B339708F075C048
:101ED0002CAF6B966EAD7FAD6B978FEB90E00E9451
:101EE000C304811119C066EC72E06B968EAD9FAD94
:101EF0006B970E940C2881E3800F69968FAF6997DA
:101F00006A961FAE6A97BE01695A7F4F6B968EAD77
:101F10009FAD6B970E94C72B6B966EAD7FAD6B9795
:101F200040E150E083E390E08C0F9D1F40960E94BB
:101F3000ED2B63961FAE639780E991E00F3FFFEFB3
:101F40001F07E9F40E94C32880935504853008F0E8
:101F50004DC090E2899FB00111246F567E4F40E240
:101F600050E0CE01C3960E94CB28609155046F5F6C
:101F70006093550480E991E00E94D52814C00E9426
:101F8000C32880935504081770F4E5E0000F111F73
:101F9000EA95E1F7B8016F567E4F40E250E0CE017E
:101FA000C3960E94CB280E94E7050E940E0A8093E8
:101FB000900360E070E081E01CC0CE018D5A9F4F1D
:101FC0006C962FAF6C970E945D03F701728361835B
:101FD000D082DD0CF3E0EF0EF11C6C962FAD6C9708
:101FE000213011F021E066CF22E072CF6EEC72E07A
:101FF00081E10E943705C55ADF4F0FB6F894DEBF66
:102000000FBECDBFDF91CF911F910F91FF90EF9049
:10201000DF90CF90BF90AF909F908F9008950895DC
:1020200080918403882361F09FB7F8942091840302
:1020300080918303213019F48DBB9FBF08958FBF1A
:102040000895FC012085918580918403882379F08F
:102050008FB7F89430918403313039F43DB3309325
:1020600083033DB33DBB8FBF02C0809383032CBD70
:102070009DBD08959FB7F89480918203882319F03D
:1020800081508093820380918203811105C08CB5B9
:102090008F7B8CBD109284039FBF08958CB58F7782
:1020A0008CBD08958CB580688CBD08956EBD000010
:1020B0000DB407FEFDCF8EB50895FC0173836283D6
:1020C0000895FC01778366830895FC01758364831A
:1020D000089508950895089508950895FC01848948
:1020E00095890895FC01828993890895FC0180896E
:1020F0009189089580E00895FC0181850895FC018F
:1021000080850895FC0187810895FC0186810895EA
:10211000FC01409595854923642B65870895FC0152
:1021200064870895FC0163870895FC016287089520
:10213000FC0164830895FC016583089580E008959F
:10214000FC012281338123303105D1F381E00895F0
:10215000CF93DF93EC01E881F9810280F381E02DD8
:10216000CE0109958823B9F3DF91CF91089581E0DD
:102170000895CF93DF93FC01228133812230310512
:1021800069F0EC01678D858D0E94171D60E08C8DD4
:102190000E94171D82E090E09B838A83DF91CF919C
:1021A00008950F931F93CF93DF93EC01162F0FB772
:1021B000F89460E08B8D0E94171D898D9A8DDC014B
:1021C000ED91FC91612F6F770190F081E02D0995E1
:1021D000898D9A8DDC01ED91FC910190F081E02DCB
:1021E00060E00995182F61E08B8D0E94171D0FBFCD
:1021F000812FDF91CF911F910F910895CF93DF939E
:10220000EC01898D9A8DDC01ED91FC910680F781BE
:10221000E02D099561E08B8D0E94471D61E08B8D5B
:102220000E94171D64E670E080E090E00E94831D2C
:1022300081E0DF91CF9108950F931F93CF93FC011D
:10224000828193818430910569F08330910579F022
:102250008230910589F00197A1F040E452E46FE0EB
:1022600070E013C040E054E264EF70E00EC040E064
:1022700052E16AE770E009C040E059E06DE370E0C8
:1022800004C040E854E86EE170E0A481B581868125
:102290009781009741F08130910539F082309105A6
:1022A00031F0039731F090E005C094E003C098E06E
:1022B00001C09CE080E000E019E02DE330E0401731
:1022C00051076207730740F43695279517950795D0
:1022D0008F5F8630A1F787E021E02827119711F062
:1022E00080E501C080E7322F3695932B982B90879D
:1022F00021702187CFB7F89480918203811127C084
:10230000ECEBF1E08491E0EDF1E09491E82FF0E066
:10231000EE0FFF1FE256FE4FA591B491EC91E92319
:1023200021F461E08AE00E94171D61E08AE00E94CA
:10233000471D8CB580618CBD8CB580648CBD61E01F
:102340008DE00E94471D61E08BE00E94471D809157
:1023500082038F5F80938203CFBFCF911F910F9134
:1023600008958F929F92AF92BF92CF92DF92EF9299
:10237000FF92CF93DF93EC016B010E94BD1D4B01D7
:102380005C01E12CF12C0E94BD1DDC01CB01881900
:102390009909AA09BB098C159D05AE05BF0530F446
:1023A0008A819B81039779F381E001C080E0DF910E
:1023B000CF91FF90EF90DF90CF90BF90AF909F9024
:1023C0008F9008958F929F92AF92BF92CF92DF929B
:1023D000EF92FF92CF93DF93EC016B010E94BD1D42
:1023E0004B015C01E12CF12C0E94BD1DDC01CB01F5
:1023F00088199909AA09BB098C159D05AE05BF0569
:1024000050F4E881F9810280F381E02DCE01099535
:10241000882351F301C080E0DF91CF91FF90EF90CE
:10242000DF90CF90BF90AF909F908F9008958F9244
:102430009F92AF92BF92CF92DF92EF92FF92CF9393
:10244000DF93FC012789308D232B11F481E038C004
:10245000EC010E94BD1D6B017C0189E0882E912C4E
:10246000A12CB12CE881F9810488F589E02DCE01F9
:102470000995882359F30E94BD1DAB01BC014C197D
:102480005D096E097F098F89988DA0E0B0E08417FF
:102490009507A607B70798F00E949C27A50194010D
:1024A0000E94E3289B01AC012F5F3F4F4F4F5F4FCE
:1024B000A4E6B0E00E9402290E94831DD3CF80E0F1
:1024C000DF91CF91FF90EF90DF90CF90BF90AF90D2
:1024D0009F908F9008951F920F920FB60F92112424
:1024E000CF92DF92EF92FF920F931F932F933F9320
:1024F0004F935F936F937F938F939F93AF93BF930C
:10250000CF93DF93EF93FF93C0918503D091860320
:102510008A819B81049709F0CAC02B8D30E0F901B4
:10252000E652FE4F8491F901EA53FE4F0491F901FE
:10253000EE54FE4F1491112379F081110E94EE1C8C
:10254000E12FF0E0EE0FFF1FE850FF4FA591B4918F
:10255000EC91E02381E009F480E081709E8D892771
:1025600019F09BA19F5F9BA39AA1891771F09CA171
:10257000903518F02DE130E002C02BE030E09CA156
:10258000290F311D2CA38AA303C08CA18C5E8CA3C0
:102590008CA1803A08F4DDC08EA19FA19695879505
:1025A0009FA38EA38BA1853028F08EA19FA1986058
:1025B0009FA38EA38CA1805A8CA31BA28DA18823DC
:1025C00009F468C088A58F5F88A78C3008F4C1C063
:1025D0008EA19FA1982F9F73892F869586958870CD
:1025E00028E0280F821749F0E82FF0E0E759FE4F66
:1025F0003081931719F08F5FF5CF80E020E1829F43
:10260000C00111242EA13FA196E0369527959A95F9
:10261000E1F7422F3695279536952795287038E0B3
:10262000320F231749F0E22FF0E0E759FE4F5081B7
:10263000451719F02F5FF5CF20E0822BAE014359EB
:102640005F4FFA019081DE01A459BF4F9923B1F089
:10265000FA01908121E0290F20839E01290F311D6D
:10266000F90181A7FA0190818C91981788F01DA239
:1026700081E088A3CE010E94B9100AC08C939C917E
:10268000973008F460C09C91943408F05CC0E0CFAF
:1026900018A65FC08EA19FA188339B4009F059C046
:1026A00081E08DA318A6C359DF4F188252C08A81DA
:1026B0009B81039709F04DC08E0100591F4FF8010F
:1026C000808191E0980F9083811137C07E01FEE6F2
:1026D000EF0EF11CF7018081EF56FF4F90818917B3
:1026E00048F0CE010E94B9108C899D8901969D8B7E
:1026F0008C8B23C0FE01E80FF11DEF58FF4F608166
:1027000070E06E01FFE6CF0ED11CF601808191E0F2
:10271000980F908302C0759567958A95E2F761706E
:1027200077278C8D0E94171DF6018081863028F056
:102730001082F70180818F5F8083F801808188306B
:1027400040F0108206C01DA2888999890196998B54
:10275000888BFF91EF91DF91CF91BF91AF919F91C6
:102760008F917F916F915F914F913F912F911F9129
:102770000F91FF90EF90DF90CF900F900FBE0F90D2
:102780001F901895EF92FF920F931F93CF93DF93B3
:102790001F92CDB7DEB77C01162F0FB7F894DC017E
:1027A00059968D919C915A97DC01ED91FC9100888E
:1027B000F189E02D4983099560E0F701838D0E943E
:1027C000171DD70159968D919C915A97DC01ED9177
:1027D000FC91612F60680190F081E02D0995182F20
:1027E000F701818D928DDC01ED91FC910190F081DA
:1027F000E02D4981642F099561E0F701838D0E94E6
:10280000171DD70159968D919C915A97DC01ED9136
:10281000FC910288F389E02D09950FBF812F0F905D
:10282000DF91CF911F910F91FF90EF900895DF926C
:10283000EF92FF920F931F93CF93DF93EC0162E12E
:102840000E94D1102A813B812430310519F4982F40
:10285000907A41F42A813B8124303105C9F486FD08
:1028600025C016C0888999890196998B888B4FEF6E
:1028700062E1CE010E94C2134FEF62E1CE01DF910F
:10288000CF911F910F91FF90EF90DF900C94C213A6
:102890002A813B812330310509F0BAC083FFB8C0DB
:1028A0008C899D8901969D8B8C8BBCC063E1CE0188
:1028B0000E94D110F82E60E1CE010E94D110482F65
:1028C0006DE0CE010E94C213DFB6F894898D9A8D17
:1028D000DC01ED91FC910088F189E02D099560E023
:1028E0008B8D0E94171D898D9A8DDC01ED91FC91D5
:1028F0000190F081E02D60E009958E01005E1F4F90
:10290000EF2CE00EE01671F0898D9A8DDC01ED91CF
:10291000FC910190F081E02D60E00995F801819330
:102920008F01F0CF61E08B8D0E94171D898D9A8DEC
:10293000DC01ED91FC910288F389E02D0995DFBE61
:10294000FF8E4FEF62E1CE010E94C21369E1CE011A
:102950000E94D1108E010F5D1E4F87FD8D5F859502
:102960008595F80180836AE1CE010E94D11090E044
:102970009F878E87D8012C918E859F8527FF07C062
:10298000820F911D27FD9A959F878E870BC024E0AB
:10299000880F991F2A95E1F76FE070E00E948D295A
:1029A0007F876E87FE01E05EFE4F8081882329F0DD
:1029B0008E859F858D59910904C08E859F85845A87
:1029C00091099F878E878F8DFE01E15EFE4F8430D7
:1029D00090F088A18E8389A18F838AA188878BA19B
:1029E00089878D8181110CC09E818C81981741F05F
:1029F0008E818F3F29F08081882309F438CF12C05F
:102A00008A899B8901969B8B8A8B81E08083F3CF97
:102A10002A813B812530310509F029CF82FF27CF5C
:102A200081708E8BCE010E94F91E21CF80915E07AE
:102A300090915F07009711F00C9417140895EF928E
:102A4000FF920F931F93CF93DF9300D01F92CDB7C8
:102A5000DEB78C010E94FE10E82E811102C0E12C2D
:102A60009AC0D8015D968C91823029F08330B9F7F5
:102A7000FF24F39401C0F12CD80159968D919C91BB
:102A80005A97DC01ED91FC910488F589E02D6F2DBA
:102A9000099540E861E0C8010E94C2136AE070E055
:102AA00080E090E00E94831D61E0C8010E94D11087
:102AB0008038A9F660E0F801858D0E94471DD80195
:102AC0005E968C915E978F3F51F48091870384309E
:102AD00030F691E0980F909387035E968C93F801FF
:102AE000968DE92FF0E0EE0FFF1FE25AF84F1183A9
:102AF0000083911103C066E175E10AC0913019F4B9
:102B00006DE87CE105C0923009F0A9CF64E87CE172
:102B10008F2D0E944B1840E06EE0C8010E94C21346
:102B200040E06FE0C8010E94C213C8010E94F91E74
:102B300043E050E062E071E0CE0101960E94EF2791
:102B400049816DE1C8010E94C2134A816EE1C8014A
:102B50000E94C2134B8166E2C8010E94C21368E062
:102B600070E0C8010E94E81E4CE666E0C8010E94C1
:102B7000C21340E867E0C8010E94C21340E068E069
:102B8000C8010E94C213F801E05EFE4F10826DE0A2
:102B9000C8010E94C41E8E2D0F900F900F90DF91E0
:102BA000CF911F910F91FF90EF900895CF92DF92F8
:102BB000EF92FF920F931F93CF93DF936C017A01F3
:102BC0008B01C0E0D0E0CE15DF0589F0D8016D9112
:102BD0008D01D601ED91FC910190F081E02DC601AF
:102BE0000995892B11F47E0102C02196ECCFC70113
:102BF000DF91CF911F910F91FF90EF90DF90CF90D9
:102C0000089581E595E00E94201B21E0892B09F4BD
:102C100020E0822F0895FC0111821082138212821B
:102C2000158214826115710551F0FB01019000209D
:102C3000E9F73197AF01461B570B0C94AB1A089577
:102C4000AF92BF92DF92EF92FF920F931F93CF93B9
:102C5000DF935C01D0900A0599E1E92E95E0F92E09
:102C600000E010E00D1598F4E801B501C7010E94DD
:102C7000DD2B0F5F1F4F28E0E20EF11C892B91F72F
:102C8000CC0FDD1FC55FDA4F8881998102C08CE0CF
:102C900093E0DF91CF911F910F91FF90EF90DF9024
:102CA000BF90AF900895EF92FF920F931F93CF9331
:102CB000DF937C01D0910A0509E115E0C0E0CD1752
:102CC00051F0B701C8010E94DD2B085F1F4F892B0F
:102CD00021F0CF5FF4CF80E001C081E0DF91CF91A0
:102CE0001F910F91FF90EF900895EF92FF920F9335
:102CF0001F93CF93DF93CDB7DEB72A970FB6F89423
:102D0000DEBF0FBECDBFBC01CE0101960E940C28D4
:102D100000910A0589E1E82E85E0F82E10E01017F1
:102D200069F0BE016F5F7F4FC7010E94DD2B28E075
:102D3000E20EF11C892B21F01F5FF1CF80E001C072
:102D400081E02A960FB6F894DEBF0FBECDBFDF91AB
:102D5000CF911F910F91FF90EF900895CF92DF9246
:102D6000EF92FF920F931F93CF93DF93CDB7DEB710
:102D70002E970FB6F894DEBF0FBECDBFE6E5F4E0A8
:102D800001900020E9F73197E655F440EB3AF10560
:102D9000A8F56A017B018C016CE971E086E594E09D
:102DA0000E94F827B80186E594E00E94F82769E9B7
:102DB00071E086E594E00E94F8272AE0AE014F5FBB
:102DC0005F4FC701B6010E946728BC0186E594E009
:102DD0000E94C72B62E373E086E594E02E960FB65F
:102DE000F894DEBF0FBECDBFDF91CF911F910F9141
:102DF000FF90EF90DF90CF900C94C72B2E960FB6DC
:102E0000F894DEBF0FBECDBFDF91CF911F910F9120
:102E1000FF90EF90DF90CF900895EF92FF920F9385
:102E20001F93CF93DF93CDB7DEB72A970FB6F894F1
:102E3000DEBF0FBECDBFE6E5F4E001900020E9F76C
:102E40003197E655F440EB3AF10588F58B017C01AA
:102E500067E971E086E594E00E94F827B70186E50E
:102E600094E00E94C72B64E971E086E594E00E943B
:102E7000F8274AE0BE016F5F7F4FC8010E943F28DC
:102E8000BC0186E594E00E94C72B62E373E086E50F
:102E900094E02A960FB6F894DEBF0FBECDBFDF9147
:102EA000CF911F910F91FF90EF900C94C72B2A9612
:102EB0000FB6F894DEBF0FBECDBFDF91CF911F914B
:102EC0000F91FF90EF900895EF92FF920F931F9351
:102ED000CF93DF93CDB7DEB72A970FB6F894DEBF56
:102EE0000FBECDBFE6E5F4E001900020E9F7319791
:102EF000E655F440EB3AF10588F58B017C0162E977
:102F000071E086E594E00E94F827B70186E594E039
:102F10000E94F8276FE871E086E594E00E94F827A8
:102F20004AE0BE016F5F7F4FC8010E943F28BC018D
:102F300086E594E00E94C72B62E373E086E594E0A7
:102F40002A960FB6F894DEBF0FBECDBFDF91CF91AA
:102F50001F910F91FF90EF900C94C72B2A960FB6FC
:102F6000F894DEBF0FBECDBFDF91CF911F910F91BF
:102F7000FF90EF9008950F931F93CF93DF93E6E5B3
:102F8000F4E001900020E9F73197E655F440EB3A80
:102F9000F10510F5EB018C016DE871E086E594E038
:102FA0000E94F827B80186E594E00E94C72B6DE2E5
:102FB00073E086E594E00E94C72BBE0186E594E0AD
:102FC0000E94C72B61E373E086E594E0DF91CF9127
:102FD0001F910F910C94C72BDF91CF911F910F91EF
:102FE0000895E6E5F4E001900020E9F73197AF019C
:102FF0004655544066E574E08EEE95E00E940D1F44
:103000008EEE95E00C94A0100F931F93CF93C82FD2
:103010008B0180E991E00E94C32880935504C81772
:1030200078F480E2C89F90011124B9016F567E4F59
:1030300040E250E0C801CF911F910F910C94B3284A
:10304000CF911F910F9108950F931F93CF93DF930B
:10305000CDB7DEB72A970FB6F894DEBF0FBECDBF4F
:103060008A012AE0AE014F5F5F4F0E946728BC01D2
:1030700086E594E00E94C72BB80186E594E02A9685
:103080000FB6F894DEBF0FBECDBFDF91CF911F9179
:103090000F910C94C72B8230B8F4E82FF0E0EE0FBC
:1030A000FF1FE15BFE4F71836083813039F08091B7
:1030B0006900836080936900E89A089580916900AF
:1030C0008C6080936900E99A0895DC01909116075D
:1030D0009C30D0F4E92FF0E08C919F01220F331F38
:1030E000E20FF31FE05FF84F878311968C911197E1
:1030F000808712968C918187F901E05FF84F74A761
:1031000063A79F5F909316070895009769F0FC01ED
:1031100001900020E9F73197AF01481B590BBC0122
:1031200081E595E00C94D61580E090E008958F92AB
:103130009F92AF92BF920F931F93CF93DF93CDB720
:10314000DEB7A1970FB6F894DEBF0FBECDBF19A2B0
:10315000423008F44AE08E010F5D1F4F842E912CFF
:10316000A12CB12CA50194010E944C29E62FB90194
:10317000CA0101501109EA3014F4E05D01C0E95CB4
:10318000D801EC93232B242B252B61F7C8010E9437
:103190008518A1960FB6F894DEBF0FBECDBFDF91A4
:1031A000CF911F910F91BF90AF909F908F900895F6
:1031B000E0915105F09152050190F081E02D682FCA
:1031C00081E595E00994CF92DF92EF92FF92CF9341
:1031D000DF9397FF19C06B017C018DE20E94D81824
:1031E000EC0166277727CB016C197D098E099F09B1
:1031F0004AE00E9497188C0F9D1FDF91CF91FF909E
:10320000EF90DF90CF9008954AE0DF91CF91FF904B
:10321000EF90DF90CF900C949718CF93DF93682FA7
:1032200070E080E090E04AE00E949718EC018AE0AC
:1032300093E00E9485188C0F9D1FDF91CF91089518
:103240000F931F93CF93DF938C01C0E0D0E0F80180
:10325000EC0FFD1F6491662371F0E0915105F09130
:1032600052050190F081E02D81E595E00995892BCB
:1032700011F02196ECCFCE01DF91CF911F910F91EC
:103280000895CF93DF930E948518EC018AE093E0C4
:103290000E9485188C0F9D1FDF91CF910895CF93C9
:1032A000DF930E942019EC018AE093E00E948518C8
:1032B0008C0F9D1FDF91CF9108958F929F92AF92B7
:1032C000BF92CF92DF92EF92FF920F931F93CF9313
:1032D000DF93CDB7DEB7C754D1090FB6F894DEBF80
:1032E0000FBECDBF8C018CE328968FAF28978EEE52
:1032F00095E00E941C1C882309F417C18DE20E94EE
:10330000D818AE01495B5F4FB8018EEE95E00E9480
:103310003F1C882309F409C18091F505809354046A
:1033200082E891E00E942019C8010E9441198BE7B0
:1033300091E00E9420198091FC059091FD058195F6
:10334000809353070E940D192896FFAC2897F80127
:10335000EF0DF11D10821092560468018FEFC81A0C
:10336000D80A6FE270E0C6010E94D22B892B39F493
:103370009091F405809153049813D7C0D7C0B80139
:10338000CE0101960E94E62B64E373E0C6010E9421
:1033900013284C01B12CA12CDE01AE5BBF4F6D0197
:1033A000EA2CF12C81149104F1F0C4010E9441191E
:1033B000F40101900020E9F73197E819F9092896FE
:1033C000BFAC2897BE1AA394C4010E94AA27F60195
:1033D000EE0DFF1D808364E373E080E090E00E94C7
:1033E00013284C01DDCF4701B2E08B1A9108F6019A
:1033F000E80DF91DA0808A2D0E940D1980915304BB
:10340000A81621F197FC8DC08601080D191DF80141
:10341000F0808F2D0E940D1980915304F81212C074
:10342000D80111968C9180934E01CE0101960E9495
:10343000F5098AE691E00E94201980914E010E94D0
:103440000D1973C0B1E08B1A9108DCCF81E691E0D1
:103450000E944F192896AFAC28978FE2F80180831D
:10346000BA948B2C912C8B2D90E0BA1478F4D8015F
:10347000A80FB91F2C9188199909F801E80FF91FB5
:1034800021838C910E94D818B394EDCF88199909A3
:10349000F801E80FF91F11828FE2D8018C93C8015F
:1034A0000E94411919A61AA61BA61CA6FE01BD96CC
:1034B00080E1DF011D928A95E9F7EC0CFD1C86E3A3
:1034C000A82E83E0B82E8E01035C1F4FEC14FD0480
:1034D000D9F0F70182917F011F928F93BF92AF9233
:1034E0001F930F930E94FC2BB801CE0189960E9476
:1034F000C72BCE0189960E9441190F900F900F9013
:103500000F900F900F90E2CF64E373E0CE018996A5
:103510000E94C72BBE01675D7F4F86E594E00E9445
:10352000E62B2896FFAC289701C0F12C8F2DC95BA4
:10353000DF4F0FB6F894DEBF0FBECDBFDF91CF9146
:103540001F910F91FF90EF90DF90CF90BF90AF90C1
:103550009F908F900895EF92FF920F931F93CF93B8
:10356000DF93EC017B018A0188819981009729F022
:103570002A813B8124173507F8F4B8016F5F7F4F2C
:103580000E94EF2A009759F0998388831B830A834E
:103590002C813D81232B81F4FC0110820DC0888198
:1035A0009981009711F00E94572A198218821D8272
:1035B0001C821B821A8207C01D830C83B70188817D
:1035C00099810E94E62BCE01DF91CF911F910F913F
:1035D000FF90EF900895089580E090E00895FC0139
:1035E000538D448D252F30E0842F90E0821B930B68
:1035F000541710F0CF96089501970895FC01918D0E
:10360000828D981761F0828DDF01A80FB11D5D9644
:103610008C91928D9F5F9F73928F90E008958FEFB2
:103620009FEF0895FC01918D828D981731F0828D66
:10363000E80FF11D858D90E008958FEF9FEF0895BD
:10364000FC01918D228D892F90E0805C9F4F821B21
:1036500091098F7399270895FC01848DDF01A80FCC
:10366000B11DA35ABF4F2C91848D90E001968F73AA
:103670009927848FA689B7892C93A089B1898C91C9
:1036800080648C93938D848D981306C00288F3898F
:10369000E02D80818F7D80830895EF92FF920F93BC
:1036A0001F93CF93DF93EC0181E0888F9B8D8C8DEE
:1036B000981305C0E889F989808185FD24C0F62E1C
:1036C0000B8D10E00F5F1F4F0F731127E02E8C8DB5
:1036D000E8120CC00FB607FCFACFE889F98980819F
:1036E00085FFF5CFCE010E942C1BF1CF8B8DFE0103
:1036F000E80FF11DE35AFF4FF0820B8FEA89FB8937
:103700008081806207C0EE89FF896083E889F9893A
:1037100080818064808381E090E0DF91CF911F9170
:103720000F91FF90EF900895CF93DF93EC01888D78
:103730008823C9F0EA89FB89808185FD05C0A889B5
:10374000B9898C9186FD0FC00FB607FCF5CF80813B
:1037500085FFF2CFA889B9898C9185FFEDCFCE0185
:103760000E942C1BE7CFDF91CF91089580E090E07D
:10377000892B29F00E94011681110C9400000895F4
:103780003FB7F8948091690790916A07A0916B0701
:10379000B0916C0726B5A89B05C02F3F19F0019684
:1037A000A11DB11D3FBFBA2FA92F982F8827820FC7
:1037B000911DA11DB11DBC01CD0143E0660F771F16
:1037C000881F991F4A95D1F7089508958BEF0895A2
:1037D0000E94B92BCF93DF93EC018A819B810597DF
:1037E00071F047E061E0CE010E94C21340E860E45E
:1037F000CE010E94C21385E090E09B838A838A8178
:103800009B810597E1F38E89DF91CF910895CF9346
:10381000DF93FC01228133812130310549F0EC0135
:1038200040E061E00E94C21381E090E09B838A83C4
:1038300081E0DF91CF910895CF93DF93FC01228146
:10384000338123303105B9F0EC01828193810497F3
:1038500071F045E061E0CF010E94C21340E060E4F6
:10386000CE010E94C21384E090E09B838A83C15EF4
:10387000DE4F888101C080E0DF91CF910895CF9223
:10388000DF92EF92FF920F931F93CF93DF93EC01A0
:103890007B018A01E881F9810280F381E02D09959D
:1038A000D82E882339F1E114F104E1F00115110556
:1038B000C9F0CFB6F8942F8D30E023503109F801CC
:1038C000808190E0821793071CF09F8D9450908325
:1038D000F801408150E0BE016C5D7F4FC7010E943E
:1038E000BE2BCFBE8FB7F894FE01E15EFE4F108273
:1038F0001F8E8FBF8D2DDF91CF911F910F91FF9064
:10390000EF90DF90CF9008958091620790916307C8
:10391000009711F00C94171408958091600790910E
:103920006107009711F00C94171408951F920F92DD
:103930000FB60F9211242F933F934F935F936F9382
:103940007F938F939F93AF93BF93EF93FF9381E503
:1039500095E00E942C1BFF91EF91BF91AF919F9139
:103960008F917F916F915F914F913F912F910F9028
:103970000FBE0F901F9018951F920F920FB60F92C7
:1039800011242F938F939F93EF93FF93E091610501
:10399000F09162058081E0916705F091680582FDF4
:1039A00012C0908180916A058F5F8F7320916B05A3
:1039B000821751F0E0916A05F0E0EF5AFA4F958FC7
:1039C00080936A0501C08081FF91EF919F918F9153
:1039D0002F910F900FBE0F901F901895833081F09C
:1039E00028F4813099F08230A1F008958730A9F051
:1039F0008830B9F08430D1F4809180008F7D03C08D
:103A0000809180008F7780938000089584B58F77B0
:103A100002C084B58F7D84BD08958091B0008F77FA
:103A200003C08091B0008F7D8093B00008951F93F4
:103A3000CF93DF93282F30E0F901E652FE4F8491B7
:103A4000F901EA53FE4FD491F901EE54FE4FC491AF
:103A5000CC23C9F0162F81110E94EE1CEC2FF0E050
:103A6000EE0FFF1FE855FE4FA591B4918FB7F89464
:103A7000111105C09C91ED2FE095E92302C0EC9156
:103A8000ED2BEC938FBFDF91CF911F910895CF93D2
:103A9000DF9390E0FC01EA53FE4F2491FC01EE54C9
:103AA000FE4F8491882361F190E0880F991FFC01FB
:103AB000E256FE4FC591D491FC01E855FE4FA59109
:103AC000B491611109C09FB7F89488812095822331
:103AD0008883EC912E230BC0623061F49FB7F89479
:103AE0003881822F809583238883EC912E2B2C9311
:103AF0009FBF06C08FB7F894E8812E2B28838FBF15
:103B0000DF91CF9108958F929F92AF92BF92CF9203
:103B1000DF92EF92FF926B017C010E94C01B4B0170
:103B20005C01C114D104E104F104F1F00E94C01B56
:103B3000DC01CB0188199909AA09BB09883E934089
:103B4000A105B10570F321E0C21AD108E108F1081E
:103B500088EE880E83E0981EA11CB11CC114D1040C
:103B6000E104F10419F7DDCFFF90EF90DF90CF90E3
:103B7000BF90AF909F908F9008952FB7F894609169
:103B800065077091660780916707909168072FBF5E
:103B900008951F920F920FB60F9211242F933F9307
:103BA0008F939F93AF93BF93809165079091660722
:103BB000A0916707B09168073091640726E0230F52
:103BC0002D3720F40296A11DB11D05C029E8230F51
:103BD0000396A11DB11D2093640780936507909300
:103BE0006607A0936707B093680780916907909173
:103BF0006A07A0916B07B0916C070196A11DB11DDA
:103C00008093690790936A07A0936B07B0936C0742
:103C1000BF91AF919F918F913F912F910F900FBEC8
:103C20000F901F9018951F920F920FB60F921124AC
:103C30002F933F934F935F936F937F938F939F93B4
:103C4000AF93BF93EF93FF93E0915101F091520135
:103C50000995FF91EF91BF91AF919F918F917F91C6
:103C60006F915F914F913F912F910F900FBE0F90E9
:103C70001F9018951F920F920FB60F9211242F9339
:103C80003F934F935F936F937F938F939F93AF93E4
:103C9000BF93EF93FF93E0914F01F091500109958D
:103CA000FF91EF91BF91AF919F918F917F916F9114
:103CB0005F914F913F912F910F900FBE0F901F90EA
:103CC00018951F920F920FB60F9211248F930FB673
:103CD000F894A895809160008861809360001092AC
:103CE00060000FBE8F910F900FBE0F901F90189520
:103CF0004115510529F4EAE7F0E080818F77808350
:103D00006A307105A9F063FD02C088E001C088E255
:103D10006770682B88E10FB6F894A89580936000CF
:103D20000FBE60936000E0E6F0E0808180648083F5
:103D3000232BA1F483B7817F846083BFF89483B77A
:103D4000816083BF85B7806685BF8F7D85BF78948E
:103D5000889583B78E7F83BF78940EC083B7817FA9
:103D6000846083BFF89483B7816083BF789488951B
:103D700083B78E7F83BF7894452B29F4EAE7F0E080
:103D800080818068808308950F931F93CF938C0167
:103D9000C62F68312CF465305CF0653114F409C02D
:103DA000C7E147E06DE4C8010E94C213C35006C0DA
:103DB000C5E044E06DE4C8010E94C2134BEF4C0F14
:103DC000406869E0C801CF911F910F910C94C21314
:103DD0001F93CF93DF93EC01162F472F60E20E94D1
:103DE000C213412F61E2CE01DF91CF911F910C945C
:103DF000C213CF93DF93FC0122813381223031053E
:103E000049F0EC0141E061E00E94C21382E090E0E1
:103E10009B838A83DF91CF910895BF92CF92DF92E7
:103E2000EF92FF920F931F93CF93DF934C3F10F0CD
:103E3000C12C81C0142F072FD62EEC01E881F98107
:103E40000484F585E02D0995CE010E94F91EE881D4
:103E5000F9810288F389E02DCE010995C82E8823C7
:103E600039F340E06DE0CE010E94C2134A8560E064
:103E7000CE010E94C2134B8560E0CE010E94C213A6
:103E80004C8560E0CE010E94C2134D8560E0CE01FA
:103E90000E94C213BFB6F894898D9A8DDC01ED9112
:103EA000FC910088F189E02D099560E08B8D0E94DE
:103EB000171D898D9A8DDC01ED91FC910190F081A7
:103EC000E02D60E80995ED2CF02E012F015068F0EF
:103ED000898D9A8DF70161917F01DC01ED91FC9153
:103EE0000190F081E02D0995F1CF61E08B8D0E946A
:103EF000171D898D9A8DDC01ED91FC910288F38963
:103F0000E02D0995BFBE44E0410F62E2CE010E9460
:103F1000C2138A819B81039771F043E061E0CE0177
:103F20000E94C21340E460E4CE010E94C21383E009
:103F300090E09B838A838C2DDF91CF911F910F910D
:103F4000FF90EF90DF90CF90BF900895CF93DF93D5
:103F5000CDB7DEB7C759D1090FB6F894DEBF0FBE93
:103F6000CDBF789484B5826084BD84B5816084BD02
:103F700085B5826085BD85B5816085BD80916E0007
:103F8000816080936E001092810080918100826038
:103F90008093810080918100816080938100809175
:103FA00080008160809380008091B1008460809364
:103FB000B1008091B00081608093B00080917A0060
:103FC000846080937A0080917A00826080937A0086
:103FD00080917A008E7F80937A0080917A00806849
:103FE00080937A001092C100E0916105F091620522
:103FF00082E08083E0915D05F0915E051082E091A2
:104000005F05F091600588E0808310926905E0917A
:104010006505F091660586E08083E0916305F09187
:104020006405808180618083E0916305F09164057F
:10403000808188608083E0916305F09164058081D0
:1040400080688083E0916305F091640580818F7DB5
:10405000808360E083E10E94171D61E083E10E949C
:10406000471D60E084E00E94171D60E083E00E942D
:10407000171D61E084E00E94471D61E083E00E941B
:10408000471D60E086E00E94171D60E085E00E9409
:10409000171D61E086E00E94471D61E085E00E94F7
:1040A000471D1092FB0368EE73E080E090E00E94F1
:1040B000831D80E090E00E94C3288F3731F06FE7C6
:1040C00080E090E00E94D52845C067E0E62E61E0E0
:1040D000F62E7AE0C72ED12C10E04EE150E0B6016A
:1040E000CE0101960E94B328BE016F5F7F4FC701CA
:1040F0000E94E62B153031F4BE01655F7F4F82E5EB
:1041000092E007C0143039F4BE01655F7F4F8CE048
:1041100093E00E94E62B8F819885F7019783868331
:1041200089859A85918780871F5FFEE1CF0ED11C1C
:104130002AE0E20EF11C173081F680910D0190917A
:104140000E018436910541F084E690E090930E01D3
:1041500080930D010E94AE08809121018093100789
:1041600080912B018093110780E090E00E94C3288A
:10417000893D41F41092550460E080E991E00E948D
:10418000D5280AC080E991E00E94C3288093550495
:104190008B3010F01092550461E087E00E94471DBB
:1041A00060E080E090E00E94D52861E087E00E9416
:1041B000171D68E873E180E090E00E94831D60E0D5
:1041C00087E00E94171D6FE780E090E00E94D528ED
:1041D00010E08091100760E01817A8F487E00E94B3
:1041E000171D64EF71E080E090E00E94831D61E0A4
:1041F00087E00E94171D64EF71E080E090E00E946C
:10420000831D1F5FE6CF87E00E94171D61EA73E000
:1042100087ED92E00E94651864ED72E08BED92E00C
:104220000E94651868E871E08FED92E00E946518C1
:1042300067E971E083EE92E00E94651864EB77E035
:1042400087EE92E00E9465186EEF78E08BEE92E0C8
:104250000E9465186CED7DE08FEE92E00E9465187B
:1042600064E67DE083EF92E00E94651865E97BE0FB
:1042700087EF92E00E94651866EB75E08BEF92E0A5
:104280000E9465188EEE95E00E941F15811101C0F5
:10429000FFCF64E18EEE95E00E94C41E44EE66E01E
:1042A0008EEE95E00E94C21340EC67E08EEE95E042
:1042B0000E94C21340E068E08EEE95E00E94C213B7
:1042C00081E080930E07809110078093F205809320
:1042D000F9058093530480910401882381F064EFF1
:1042E00071E08EEE95E00E94E81E64EF71E080E0E0
:1042F00090E00E94831D8EEE95E00E94EA1B68EE1E
:1043000073E080E090E00E94831D45E06FEF72E073
:104310008EEE95E00E940D1F8EEE95E00E94A0109B
:104320001092F0038091900381110AC0809188035C
:10433000882331F00E94E7050E940E0A80939003C3
:104340006E013FE7C30ED11C1E0143E4240E311C55
:104350000E94E70528E130E040E050E00E944C294F
:104360009B01AC01A0E1BEE00E940229623371050D
:104370008105910598F480914D01882379F0109280
:104380004D018091490190914A01009739F00197C0
:1043900090934A01809349010E94AE080E94E7056C
:1043A00028E130E040E050E00E944C299B01AC0144
:1043B000A0E1BEE00E9402296D33710581059105DF
:1043C00018F081E080934D010E94BD1D2B013C013E
:1043D00052E7450E51E0551E611C711CCE018A5BEF
:1043E0009F4FCF56DF4F99838883C159D040FE013C
:1043F000EF5BFF4FCD56DF4FF983E883C359D040C1
:104400000E94BD1D930182010E571F4F2F4F3F4F3A
:10441000601771078207930708F0A3C08EEE95E03E
:104420000E94EA1B811118C08EEE95E00E94071CC5
:1044300020E030E040E050E063E070E088E494E0A9
:104440000E94781E8091510490915204019690939D
:104450005204809351047FC08FE50E94D8180E94B7
:10446000BD1D4B015C01F8EB8F0EFBE09F1EA11CF4
:10447000B11C8EEE95E00E941C1C811107C00E94A9
:10448000BD1D681579058A059B0598F3CE01019637
:104490000E945D19882301F1BE016F5F7F4FCE013D
:1044A0008F599F4F0E94E62B69E771E0CE0101967C
:1044B0000E9413288C010E94411965E073E0C80135
:1044C0000E94DD2B892B09F05EC29091F40580914A
:1044D0005304981709F4A4C18091460481111FC3A5
:1044E0000E94BD1D00910001109101012091020167
:1044F000309103010617170728073907A8F40E940F
:10450000BD1DDC01CB01805C9848A44EBF4F809359
:10451000000190930101A0930201B093030181E097
:1045200080930601109247048EEE95E00E94071CCE
:10453000809151049091520401969093520480937B
:10454000510420E030E040E050E063E070E088E4B7
:1045500094E00E94781EF2E84F1A51086108710831
:104560004FCF8091510490915204893C91050CF4F5
:104570006DC00E94E7054B015C0100915104109150
:1045800052040E94BD1D2B013C018091F9039091C2
:10459000FA0364EF71E00E948D29CB01770FAA0B1B
:1045A000BB0B880E991EAA1EBB1E22E830E0D80164
:1045B0000E94A12900914D0410914E0420914F04B6
:1045C00030915004DC01CB01801B910BA20BB30B8B
:1045D000BC01CD01640D751D861D971D28EE33E0CD
:1045E00040E050E00E944C29C501B401620F731FE6
:1045F000841F951F0E94C005809151049091520420
:10460000092E000CAA0BBB0B4091F5035091F60349
:104610006091F7037091F803840F951FA61FB71FD1
:104620008093F5039093F603A093F703B093F803F8
:1046300010925204109251040E94BD1D60934D04CB
:1046400070934E0480934F04909350040E94E705AA
:10465000AB01BC014093F1035093F2036093F30369
:104660007093F4038091490490914A04A0914B0403
:10467000B0914C0484179507A607B70709F4CDC07D
:104680008091F003882301F1E091EF0329E0E29F9C
:10469000F0011124EB56FC4F0481158126813781EE
:1046A00080819181A281B381800F911FA21FB31FCE
:1046B000841B950BA60BB70B8093910390939203E9
:1046C000A0939303B09394034093490450934A04F6
:1046D00060934B0470934C040E94E7050E9471069E
:1046E00060918B0370E080E090E00E94E3188AE321
:1046F0000E94D8180E94E7050E94710660918A0303
:1047000070E080E090E00E94E3188AE30E94D818ED
:104710000E94E7050E9471066091890370E080E0C5
:1047200090E00E94E3188AE093E00E94851890913F
:1047300090038091EF03891708F06FC08091F00318
:1047400081111BC00E94E705E091EF0339E0E39F70
:10475000F0011124EB56FC4F00811181228133813D
:10476000601771078207930708F457C081E08093B0
:10477000F00380850E948C0750C00E94E7050091DD
:10478000EF0319E0109FD0011124AB56BC4F1496D3
:104790004D905D906D907C9017978D909D90AD9011
:1047A000BC901397840C951CA61CB71C6815790542
:1047B0008A059B0590F11092F00318968C910E9447
:1047C000640781E0800F8093EF030E94E705E0918A
:1047D000EF031E9FF0011124EB56FC4F0081118165
:1047E00022813381061717072807390710F00E9426
:1047F000E70580919003833080F090E0019720914D
:10480000EF0330E02817390744F01092EF030E94BD
:10481000E7050E940E0A809390030E94B61B98CD74
:1048200069E771E080E090E00E941328209147043E
:10483000211104C00E94AA27809347048091470455
:104840000E940D1980910601882309F448C08091C7
:10485000FC059091FD058E389F4F0CF440C081E01F
:1048600080934604109206015091F505509305017E
:104870006091530440914704862F90E0252F30E04B
:10488000561708F05CC1821B930B489F8001499F1B
:10489000100D11240E94BD1D4B015C0120E737E182
:1048A000D8010E94A129DC01CB01880D991DAA1D08
:1048B000BB1D8093420490934304A0934404B0939F
:1048C00045046091420470914304809144049091A6
:1048D00045040E94E3188AE093E00E9485188E0147
:1048E000035C1F4FF801108211821282138280E252
:1048F000CD56DF4FE881F981C359D04011928A9596
:10490000E9F78090420490904304A0904404B09052
:1049100045040E94BD1DE090FC05F090FD05A50139
:104920009401261B370B480B590BCA01B90128EE1D
:1049300033E040E050E00E944C295F934F933F9357
:104940002F93F194E194F108FF92EF928DE093E0C0
:104950009F938F931F930F930E94FC2B8091F505DB
:1049600080934E01C8010E94F5098FE491E00E94F6
:1049700020198091F5050E940D190FB6F894DEBF3D
:104980000FBECDBFA9CD68E173E0C8010E94DD2B49
:10499000892BD1F487E491E00E944F1980910501A1
:1049A0000E940D198091050180934E0110915304CE
:1049B0008091540480935304CE018F599F4F0E94DD
:1049C000F5091093530488CD60E273E0C8010E949A
:1049D000DD2B892B61F481E08093040164EF71E0A9
:1049E0008EEE95E00E94E81E87E391E011C064E23C
:1049F00073E0C8010E94DD2B892B69F41092040139
:104A000068E070E08EEE95E00E94E81E87E291E09B
:104A10000E944F1961CD1DAE10920A056CE771E03E
:104A2000CE0101960E941328892B09F474C06FE708
:104A300071E080E090E00E9413282CEF33E0309387
:104A40000C0520930B050097C9F020910A0558E04A
:104A5000259F90011124BC01C901875E9A4F0E94D5
:104A6000E62B64E871E080E090E00E9413286091FA
:104A70000A05009769F46F5F60930A054091160775
:104A800029815A813B81E9E1F7E080E090E030C084
:104A9000E62FF0E0DC010D900020E9F79D01281BD6
:104AA000390BDF01AA0FBB1FA35FBA4FEE0FFF1F29
:104AB000E55FFA4F2F5F3F4F40815181240F351F33
:104AC0002D933C936F5F60930A05BC0180819181B7
:104AD0000E94E62B69E871E080E090E00E941328D4
:104AE000B2CFDF0112976C91621729F001963396CD
:104AF0008417B8F310C011966C916513F7CF6081DD
:104B00006313F4CF880F991FFC01E05FF84F03A4F3
:104B1000F4A5E02D09951982F8011082DDCC0E94E0
:104B2000BD1D009142041091430420914404309132
:104B300045040617170728073907D8F0D1CC281BDA
:104B4000390B429FD001439FB00D1124449FA00117
:104B5000112420E737E10E94A1294B015C01DA0111
:104B60000E94A129860E971EA81EB91E0E94BD1D77
:104B70009ACE109206018AE0F60111928A95E9F721
:104B800010E080914704181708F0BFC003E07601D9
:104B9000E10EF11CE10EF11CCA56DF4FF982E882EA
:104BA000C659D04080915304181709F491C088E188
:104BB00091E00E942019812F0E940D1910934E013F
:104BC000ECE8F1E0DE01DD9686E001900D928A9539
:104BD000E1F789E0F10111928A95E9F780914704A4
:104BE0004AE0BE016F597F4F90E00E943F28BC0110
:104BF000CE01CD960E94C72BCE01CD960E944119C1
:104C0000CE01CD960E94F509109354040E94BD1D5B
:104C1000F701208131812A563F4F31832083CB56C3
:104C2000DF4F1882C559D0404B015C01F0ED8F0E6B
:104C3000F7E09F1EA11CB11C0E94BD1D68157905DF
:104C40008A059B0508F044C0CB56DF4F3881C55913
:104C5000D04031113DC0CE0101960E945D198823DC
:104C600059F369E771E0CE0101960E94132868E2CA
:104C700073E00E94DD2B892BF9F669E771E080E093
:104C800090E00E9413280E94C82770E066597109BD
:104C9000CA56DF4FE881F981C659D04080819181A1
:104CA000680F791F71836083072E000C880B990BA6
:104CB0000E94E3188EE091E00E942019812F0E944B
:104CC0000D1921E0CB56DF4F2883C559D040B4CF12
:104CD000015009F067CF212F30E0F901EE0FFF1FDF
:104CE000EC0DFD1D8081918163E070E00E948D29B3
:104CF000E9E8F0E0EC0FFD1FE20FF31F693710F455
:104D0000608301C010821F5F3CCF109246048091E7
:104D1000050180934E010E940D1989E0EBE9F1E055
:104D2000DE01DD9601900D928A95E1F785E1CF567F
:104D3000DF4FE881F981C159D04011928A95E9F796
:104D4000809153044AE0BE016F597F4F90E00E946A
:104D50003F28BC01CE01CD960E94C72B62E373E0D1
:104D6000CE01CD960E94C72B10E080914704181702
:104D7000D8F4E9E8F0E0EC0FFD1FE10FF11D8081B0
:104D80004AE0BE016F597F4F90E00E943F28BC016E
:104D9000CE01CD960E94C72B62E373E0CE01CD9683
:104DA0000E94C72B1F5FE1CF80915304882309F431
:104DB00097CBCE01CD960E94F50992CBE1E5F5E0C7
:104DC0001382128288EE93E0A0E0B0E084839583A2
:104DD000A683B78387EC91E09183808385EC90E094
:104DE0009587848784EC90E09787868780EC90E0B5
:104DF000918B808B81EC90E0938B828B82EC90E0A6
:104E0000958B848B86EC90E0978B868B118E128E1F
:104E1000138E148EA4E5B7E013961C921E9212977F
:104E200015961C921E92149717961C921E92169716
:104E300089ED91E011969C938E9380E518968C9362
:104E4000189781E019968C931997EEEEF5E013828E
:104E500012828FEF84838287838714861586118A56
:104E6000108A138A128A158A148A108E178AB28FB2
:104E7000A18F9AE0938F23EF31E03183208310924A
:104E80000D0792E0958F868FE0E1F7E08083118235
:104E90001282138214821582168208958F929F9235
:104EA000AF92BF92CF92DF92EF92FF92CF93DF93B8
:104EB000EC01688179818A819B8161157105810589
:104EC000910521F464E279ED8BE597E02DE133EF74
:104ED00041E050E00E94E32849015A019B01AC01E6
:104EE000A7EAB1E40E9402296B017C01ACEEB4EFA9
:104EF000A50194010E941029DC01CB018C0D9D1DA0
:104F0000AE1DBF1DB7FF03C00197A109B04888833C
:104F10009983AA83BB83BC01CD019F77DF91CF9199
:104F2000FF90EF90DF90CF90BF90AF909F908F90C9
:104F300008950E944E27089583E591E00E944E2730
:104F40000895609353017093540180935501909399
:104F500056010895FC0188279927E8942191203271
:104F6000E9F3293010F02E30C8F32B3241F02D3206
:104F700039F4689404C00E945F28820F911D21912A
:104F800020532A30C0F31EF4909581959F4F0895C9
:104F90001F93FC0199278827BC01E89411911032D6
:104FA000E9F3193010F01E30C8F31B3251F01D32F6
:104FB00049F4689406C00E944A28610F711D811D42
:104FC000911D119110531A30B0F33EF490958095D5
:104FD000709561957F4F8F4F9F4F1F910895FB01F3
:104FE000DC0102C005900D9241505040D8F7089561
:104FF000FB01DC010D900020E9F7119705900D925F
:105000000020E1F70895FB01DC018D9105908019E6
:105010000110D9F3990B0895FB01DC0105900D9265
:105020000020E1F708954DE657E00E941828089502
:10503000FA01A191B081009719F41097E1F0CD0128
:10504000DC01CD010D90002011F4C00113C0FB0163
:105050002191222319F02015D9F7F3CFFB012191DB
:10506000201519F41E92119606C02223C1F70D9047
:105070000020A1F7D001FA01A193B0830895BB27C6
:105080004A3031F4992322F4BDE2909581959F4FE7
:105090000C948A28592F482F372F262F660F771FF9
:1050A000881F991F660F771F881F991F620F731F34
:1050B000841F951F660F771F881F991F08957AE038
:1050C000979F902D879F802D910D11240895BB27C8
:1050D000FA01A62F6217710581059105330B30FB8C
:1050E00066F0AA27660F771F881F991FAA1FA217AD
:1050F00010F0A21B63953850A9F7A05DAA3308F001
:10510000A95DA19336F7B111B1931082CA010C9435
:10511000A328BB27FB015527AA27880F991FAA1F81
:10512000A41710F0A41B83955051B9F7A05DAA33C2
:1051300008F0A95DA193009779F7B111B19311928D
:10514000CB010C94A328DC01FC01672F719177231C
:10515000E1F7329704C07C916D9370836291AE1732
:10516000BF07C8F30895DC01CB01FC01F999FECF1C
:1051700006C0F2BDE1BDF89A319600B40D924150DF
:105180005040B8F70895F999FECF92BD81BDF89AC5
:10519000992780B50895DC01CB0103C02D910E94B1
:1051A000D62841505040D0F70895262FF999FECFC8
:1051B0001FBA92BD81BD20BD0FB6F894FA9AF99A34
:1051C0000FBE01960895052E97FB1EF400940E94D1
:1051D000FA2857FD07D00E944C2907FC03D04EF453
:1051E0000C94FA2850954095309521953F4F4F4F9C
:1051F0005F4F089590958095709561957F4F8F4F83
:105200009F4F08950E946E29A59F900DB49F900D09
:10521000A49F800D911D11240895B7FF0C940229BD
:105220000E940229821B930B08952F923F924F9266
:105230005F926F927F928F929F92AF92BF92CF9226
:10524000DF92EF92FF920F931F93CF93DF93CDB72F
:10525000DEB7CA1BDB0B0FB6F894DEBF0FBECDBFA7
:1052600009942A88398848885F846E847D848C8478
:105270009B84AA84B984C884DF80EE80FD800C8181
:105280001B81AA81B981CE0FD11D0FB6F894DEBF64
:105290000FBECDBFED010895A1E21A2EAA1BBB1BC4
:1052A000FD010DC0AA1FBB1FEE1FFF1FA217B307F2
:1052B000E407F50720F0A21BB30BE40BF50B661F08
:1052C000771F881F991F1A9469F7609570958095CC
:1052D00090959B01AC01BD01CF010895A29FB00143
:1052E000B39FC001A39F700D811D1124911DB29F1A
:1052F000700D811D1124911D0895DB018F939F93E3
:105300000E940229BF91AF91A29F800D911DA39F82
:10531000900DB29F900D1124089597FB072E16F45F
:10532000009407D077FD09D00E94A82907FC05D07A
:105330003EF4909581959F4F0895709561957F4FAC
:1053400008950E946E29B7FF0895821B930B08955C
:10535000AA1BBB1B51E107C0AA1FBB1FA617B7079B
:1053600010F0A61BB70B881F991F5A95A9F78095B7
:105370009095BC01CD010895EE0FFF1F0590F491AB
:10538000E02D0994CF93DF938230910510F482E0F1
:1053900090E0E0917107F091720720E030E0C0E00A
:1053A000D0E0309711F14081518148175907C0F082
:1053B0004817590761F482819381209719F09B83E4
:1053C0008A832BC0909372078093710726C02115A2
:1053D000310519F04217530718F49A01BE01DF0195
:1053E000EF010280F381E02DDCCF2115310509F1B9
:1053F000281B390B2430310590F412968D919C9125
:1054000013976115710521F0FB019383828304C01A
:105410009093720780937107FD01329644C0FD019D
:10542000E20FF31F81939193225031092D933C9306
:105430003AC020916F0730917007232B41F42091DF
:10544000590130915A013093700720936F072091D2
:105450005701309158012115310541F42DB73EB760
:1054600040915B0150915C01241B350BE0916F076B
:10547000F0917007E217F307A0F42E1B3F0B2817DB
:10548000390778F0AC014E5F5F4F2417350748F0BD
:105490004E0F5F1F5093700740936F078193919356
:1054A00002C0E0E0F0E0CF01DF91CF9108950F93CB
:1054B0001F93CF93DF93009709F48CC0FC013297C0
:1054C0001382128200917107109172070115110564
:1054D00081F420813181820F931F20916F073091D9
:1054E00070072817390779F5F0937007E0936F0775
:1054F00071C0D80140E050E0AE17BF0750F41296DB
:105500002D913C911397AD012115310509F1D90178
:10551000F3CF9D01DA013383228360817181860F8D
:10552000971F8217930769F4EC0128813981260FB0
:10553000371F2E5F3F4F318320838A819B81938366
:105540008283452B29F4F0937207E093710742C0E0
:105550001396FC93EE931297ED01499159919E0198
:10556000240F351FE217F30771F480819181840FB6
:10557000951F029611969C938E9382819381139628
:105580009C938E931297E0E0F0E0D80112968D91F3
:105590009C911397009719F0F8018C01F6CF8D912B
:1055A0009C9198012E5F3F4F820F931F20916F07B0
:1055B000309170072817390769F4309729F4109251
:1055C00072071092710702C0138212821093700743
:1055D00000936F07DF91CF911F910F910895A0E085
:1055E000B0E0E5EFFAE20C941929EC01009721F400
:1055F000CB010E94C229B8C0FC01E60FF71F9C0135
:1056000022503109E217F30708F4ACC0D9010D911B
:105610001C91119706171707B0F00530110508F413
:105620009FC0C80104978617970708F499C00250D5
:105630001109061B170B019311936D937C93CF01F6
:105640000E94572A8DC05B01A01AB10A4C01800E3E
:10565000911EA0917107B091720740E050E0E12CDB
:10566000F12C109709F44AC0A815B905D1F56D9031
:105670007C901197630182E0C80ED11CCA14DB0430
:1056800080F1A3014A195B096A0182E0C80ED11CAE
:105690001296BC9012971396AC91B5E0CB16D1043C
:1056A00040F0B282A38351834083D9016D937C93F0
:1056B0000AC00E5F1F4FC301800F911FF901918334
:1056C0008083EB2DFA2FE114F10431F0D70113960A
:1056D000FC93EE93129744C0F0937207E093710726
:1056E0003FC08D919C9111974817590708F4AC0160
:1056F0007D0112960D90BC91A02DB3CF80916F07C4
:105700009091700788159905E1F446175707C8F47A
:105710008091570190915801009741F48DB79EB741
:1057200040915B0150915C01841B950BE817F907D0
:10573000C8F4F0937007E0936F07F90171836083F9
:105740000FC0CB010E94C2297C01009759F0A8012B
:10575000BE010E94BE2BCE010E94572AC70104C081
:10576000CE0102C080E090E0CDB7DEB7EEE00C9451
:10577000352981E090E0F8940C949D2EFB01DC012A
:1057800002C001900D9241505040D8F70895FB019E
:10579000DC010D900020E9F7119701900D92002097
:1057A000E1F70895FC018191861721F08823D9F74C
:1057B000992708953197CF010895FB01DC018D9160
:1057C000019080190110D9F3990B0895FB01DC01B8
:1057D00001900D920020E1F70895FB01DC0141509A
:1057E000504048F001900D920020C9F701C01D9271
:1057F00041505040E0F70895AEE0B0E0E2E0FCE256
:105800000C9423290D891E8986E08C831A830983D1
:105810008FEF9FE79E838D83AE01475E5F4F6F8959
:10582000788DCE0101960E941F2C2F813885F801BA
:10583000E20FF31F10822E96E4E00C943F29ACE0B7
:10584000B0E0E5E2FCE20C9415297C016B018A01D1
:10585000FC0117821682838181FFBDC1CE010196B2
:105860004C01F7019381F60193FD859193FF81919E
:105870006F01882309F4ABC1853239F493FD85911A
:1058800093FF81916F01853229F4B70190E00E9466
:10589000072EE7CF512C312C20E02032A0F48B32A0
:1058A00069F030F4803259F0833269F420612CC001
:1058B0008D3239F0803339F4216026C022602460B3
:1058C00023C0286021C027FD27C030ED380F3A30B3
:1058D00078F426FF06C0FAE05F9E300D1124532EA7
:1058E00013C08AE0389E300D1124332E20620CC084
:1058F0008E3221F426FD6BC1206406C08C3611F473
:10590000206802C0883641F4F60193FD859193FF2B
:1059100081916F018111C1CF982F9F7D9554933054
:1059200028F40C5F1F4FFFE3F9830DC0833631F07D
:10593000833771F0833509F05BC022C0F8018081A4
:1059400089830E5F1F4F44244394512C540115C08A
:105950003801F2E06F0E711CF801A080B18026FFC3
:1059600003C0652D70E002C06FEF7FEFC5012C878B
:105970000E94FC2D2C0183012C852F77222E17C02D
:105980003801F2E06F0E711CF801A080B18026FF93
:1059900003C0652D70E002C06FEF7FEFC5012C875B
:1059A0000E94F12D2C012C852068222E830123FCDE
:1059B0001BC0832D90E048165906B0F4B70180E271
:1059C00090E00E94072E3A94F4CFF50127FC8591D0
:1059D00027FE81915F01B70190E00E94072E3110F0
:1059E0003A94F1E04F1A51084114510471F7E5C09F
:1059F000843611F0893639F5F80127FF07C0608138
:105A00007181828193810C5F1F4F08C06081718119
:105A1000072E000C880B990B0E5F1F4F2F76722EEE
:105A200097FF09C090958095709561957F4F8F4F36
:105A30009F4F2068722E2AE030E0A4010E943F2E82
:105A4000A82EA81844C0853729F42F7EB22E2AE04C
:105A500030E025C0F22FF97FBF2E8F36C1F018F449
:105A6000883579F0B4C0803719F0883721F0AFC09D
:105A70002F2F2061B22EB4FE0DC08B2D8460B82E66
:105A800009C024FF0AC09F2F9660B92E06C028E0E7
:105A900030E005C020E130E002C020E132E0F80152
:105AA000B7FE07C060817181828193810C5F1F4FB7
:105AB00006C06081718180E090E00E5F1F4FA401FD
:105AC0000E943F2EA82EA818FB2DFF777F2E76FE72
:105AD0000BC0372D3E7FA51450F474FE0AC072FC33
